:060000000A128A110E280D
:10000800FE00030EF9000408FA000A08FB000A12B1
:100018008A11352A0A128A111128FC01FD0183135D
:10002800203084003A300A128A111E240A128A11DA
:1000380083010A128A11912A2B30831203132D0689
:10004800031D272828282A28AC01AC0A0D302D06C4
:10005800031D2F2830283A282C03031D342835285F
:100068003A28AC010130F4007408A1072D302D06A0
:10007800031D3F2840284228AB01AB0A0D302D064E
:10008800031D4728482850282B03031D4C284D28BA
:100098005028AB010130A10230302D02031C552835
:1000A8005628B3283A302D0203185B285C28B32859
:1000B8000130F4007408FC077C03031D64286528DC
:1000C80071282D080A128A1113230A128A11F400C2
:1000D800740883120313A500B32802307C06031D9D
:1000E8007628772883282D080A128A1113230A12E2
:1000F8008A11F400740883120313A400B328033090
:100108007C06031D88288928B3282D080A128A111D
:1001180013230A128A11F400740883120313A3002C
:100128000A30F4007408F00024080A128A1109241D
:100138000A128A11F5006430F6007608F00083127E
:10014800031325080A128A1109240A128A1175074D
:10015800831203132307F7007708A200B3280A3095
:100168002D06031DB828B928C42803307C06031DB2
:10017800BE28BF28C428FC012208F4007408AA007D
:1001880004307C06031DC928CA28CB28FC010800B6
:10019800643083120313C0000030C1002008C90076
:1001A800CA014908C2004A08C3000A128A11CC21B0
:1001B8000A128A11831203134008CB004B08B300BC
:1001C8000A30C0000030C1003308C900CA0149081C
:1001D800BA004A08BB009C30BC00FF30BD000A12C0
:1001E8008A11B5230A128A118312031320083A07C9
:1001F800C2003B0803183B0AC3000A128A11CC212B
:100208000A128A11831203134008CB004B08B2006C
:100218009C30C9004908BA0033080A128A11DC2345
:100228000A128A1183120313CA00F630CB004B0856
:10023800BA0032080A128A11DC230A128A118312C0
:1002480003134A072007CC004C08B10033080A12F0
:100258008A11D2220A128A1183120313C90049088B
:10026800B00032080A128A11D2220A128A118312A5
:100278000313C9004908AF0031080A128A11D222B3
:100288000A128A1183120313C9004908AE00080034
:10029800643083120313C0000030C1002A08C9006B
:1002A800CA014908C2004A08C3000A128A11CC21AF
:1002B8000A128A11831203134008CB004B08B900B5
:1002C8000A30C0000030C1003908C900CA01490815
:1002D800BA004A08BB009C30BC00FF30BD000A12BF
:1002E8008A11B5230A128A11831203132A083A07BE
:1002F800C2003B0803183B0AC3000A128A11CC212A
:100308000A128A11831203134008CB004B08B80065
:100318009C30C9004908BA0039080A128A11DC233E
:100328000A128A1183120313CA00F630CB004B0855
:10033800BA0038080A128A11DC230A128A118312B9
:1003480003134A072A07CC004C08B70039080A12D9
:100358008A11D2220A128A1183120313C90049088A
:10036800B60038080A128A11D2220A128A11831298
:100378000313C9004908B50037080A128A11D222A6
:100388000A128A1183120313C9004908B40008002D
:1003980083120313C601C11FD229D329DA29C00940
:1003A800C109C00A0319C10AC601C60AC31FDD294B
:1003B800DE29E729C209C309C20A0319C30A0130A1
:1003C800C4004408C606C701C8014008410403190F
:1003D800EE29EF29262AC501C50AFD290130031097
:1003E800C00DC10DFF3E031DF3290130C4004408B0
:1003F800C507C11F002A012AF22901300310C70DC1
:10040800C80DFF3E031D022A41084302031D0E2AA0
:1004180040084202031C112A122A192A4008C20263
:100428004108031CC303C302471401300310C10C65
:10043800C00CFF3E031D1A2A0130C502031D252AE0
:10044800262A012A460803192A2A2B2A302AC709EC
:10045800C809C70A0319C80A4808C1004708C000E4
:100468000800831203138C1E3A2A3B2A442A1A08CE
:10047800F8007808AD000A128A1120200A128A11A1
:10048800831203130C1E492A4A2A4F2A0A128A1178
:1004980088230A128A110B1C522A532A882A0B1005
:1004A80000308312031306180130A9002908031D20
:1004B8005E2A5F2A602AA8012808031D642A652A83
:1004C800702A2903031D692A6A2A702A0130F80054
:1004D8007808A007A801A80A003086180130A700EC
:1004E8002708031D782A792A7A2AA6012608031DD7
:1004F8007E2A7F2A882A2703031D832A842A882A9A
:100508000130A002A601A60A7B088A007A088400A6
:10051800790E8300FE0E7E0E09000A128A115223FC
:100528000A128A110A128A11F3230A128A110D304B
:10053800831203132D060319A22AA32AB12A2B30EA
:100548002D060319A82AA92AB12A2D302D06031928
:10055800AE2AAF2AB12AAC01AB013A302D02031CF6
:10056800B62AB72ABE2A30302D020318BC2ABD2A63
:10057800BE2AFC010A128A114C210A128A110A1297
:100588008A11CC200A128A118312031321088800C9
:100598002A0885009B2A0A128A110E28831203133F
:1005A800BC00EA2A3030122B3130122B3230122B99
:1005B8003330122B3430122B3530122B3630122BAD
:1005C8003730122B3830122B3930122B3C08BA0036
:1005D800BB013B08003A0319F22AD62A3A08003A26
:1005E8000319D62A013A0319D82A033A0319DA2A31
:1005F800013A0319DC2A073A0319DE2A013A0319DA
:10060800E02A033A0319E22A013A0319E42A0F3AC5
:100618000319E62A013A0319E82AD62A0800F20043
:10062800292B0030512B0130512B0230512B033034
:10063800512B0430512B0530512B0630512B0730EC
:10064800512B0830512B0930512B7208F000F10161
:100658007108003A0319312B152B7008303A031929
:10066800152B013A0319172B033A0319192B013AD1
:1006780003191B2B073A03191D2B013A03191F2BCA
:10068800033A0319212B013A0319232B0F3A0319B3
:10069800252B013A0319272B152B0800831603175E
:1006A80088018901880183160313850103308600B8
:1006B8008030870088018901831203138501860130
:1006C8008701880189010B110B108B170B178B12EF
:1006D8008B158316031316149614831203130C1325
:1006E800831603130F168F160F179F01EC30831212
:1006F80003138100831603131514951457308100D2
:100708000C138C160C1608000130F0007008FD0759
:100718007D03031D902B912B952B83120313300817
:10072800990002307D06031D9A2B9B2B9F2B831269
:1007380003132F08990003307D06031DA42BA52B56
:10074800A92B831203132E08990004307D06031D7C
:10075800AE2BAF2BB42B0A30831203139900FD0183
:10076800080083120313BE01BF013A1CBC2BBD2B2A
:10077800C32B3C08BE070318BF0A3D08BF0701305A
:100788000310BC0DBD0DFF3E031DC42B013003102B
:10079800BB0CBA0CFF3E031DCB2B3A083B04031DD0
:1007A800D62BD72BB92B3F08BB003E08BA00080050
:1007B80083120313BD00BC013D1CE32BE42BE82B83
:1007C8003A08BB003B08BC070310BA0D0310BD0C68
:1007D8003D08031DF02BF12BE02B3C080800831685
:1007E8000313181218151813831603178711831685
:1007F80003139A01333099008312031398171813BF
:1008080018168316031398160800F300F201731CD8
:100818000E2C0F2C132C7008F1007108F20703102E
:10082800F00D0310F30C7308031D1B2C1C2C0B2C50
:100838007208080064008001840A04060319003461
:0408480004061F2C57
:04400E00D420FF3F7C
:00000001FF
