:060000000A128A110E280D
:10000800FE00030EF9000408FA000A08FB000A12B1
:100018008A113B2A0A128A1111280A128A112C24E1
:100028000A128A11CF008313203084003C300A1250
:100038008A1124240A128A11FC01FD0183010A1283
:100048008A11972A2B30831203132F06031D2D289C
:100058002E283028AE01AE0A0D302F06031D352894
:10006800362840282E03031D3A283B284028AE0195
:100078000130F4007408A3072D302F06031D45280E
:1000880046284828AD01AD0A0D302F06031D4D281E
:100098004E2856282D03031D522853285628AD01F3
:1000A8000130A30230302F02031C5B285C28B928DA
:1000B8003A302F02031861286228B9280130F40069
:1000C8007408FC077C03031D6A286B2877282F080F
:1000D8000A128A1119230A128A11F4007408831269
:1000E8000313A700B92802307C06031D7C287D284D
:1000F80089282F080A128A1119230A128A11F40072
:10010800740883120313A600B92803307C06031D64
:100118008E288F28B9282F080A128A1119230A1243
:100128008A11F400740883120313A5000A30F4003E
:100138007408F00026080A128A110F240A128A117C
:10014800F5006430F6007608F000831203132708E0
:100158000A128A110F240A128A11750783120313CF
:100168002507F7007708A400B9280A302F06031DD1
:10017800BE28BF28CA2803307C06031DC428C5280A
:10018800CA28FC012408F4007408AC0004307C067A
:10019800031DCF28D028D128FC0108006430831221
:1001A8000313C2000030C3002008CB00CC014B0869
:1001B800C4004C08C5000A128A11D2210A128A11F9
:1001C800831203134208CD004D08B5000A30C2005F
:1001D8000030C3003508CB00CC014B08BC004C08EC
:1001E800BD009C30BE00FF30BF000A128A11BB233D
:1001F8000A128A118312031320083C07C4003D0821
:1002080003183D0AC5000A128A11D2210A128A115E
:10021800831203134208CD004D08B4009C30CB0074
:100228004B08BC0035080A128A11E2230A128A1107
:1002380083120313CC00F630CD004D08BC003408FF
:100248000A128A11E2230A128A11831203134C0735
:100258002007CE004E08B30035080A128A11D822AA
:100268000A128A1183120313CB004B08B200340818
:100278000A128A11D8220A128A1183120313CB0098
:100288004B08B10033080A128A11D8220A128A11BF
:1002980083120313CB004B08B000080064308312AC
:1002A8000313C2000030C3002C08CB00CC014B085C
:1002B800C4004C08C5000A128A11D2210A128A11F8
:1002C800831203134208CD004D08BB000A30C20058
:1002D8000030C3003B08CB00CC014B08BC004C08E5
:1002E800BD009C30BE00FF30BF000A128A11BB233C
:1002F8000A128A11831203132C083C07C4003D0814
:1003080003183D0AC5000A128A11D2210A128A115D
:10031800831203134208CD004D08BA009C30CB006D
:100328004B08BC003B080A128A11E2230A128A1100
:1003380083120313CC00F630CD004D08BC003A08F8
:100348000A128A11E2230A128A11831203134C0734
:100358002C07CE004E08B9003B080A128A11D82291
:100368000A128A1183120313CB004B08B8003A080B
:100378000A128A11D8220A128A1183120313CB0097
:100388004B08B70039080A128A11D8220A128A11B2
:1003980083120313CB004B08B60008008312031323
:1003A800C801C31FD829D929E029C209C309C20A2B
:1003B8000319C30AC801C80AC51FE329E429ED299E
:1003C800C409C509C40A0319C50A0130C60046088C
:1003D800C806C901CA01420843040319F429F529CA
:1003E8002C2AC701C70A032A01300310C20DC30D06
:1003F800FF3E031DF9290130C6004608C707C31F81
:10040800062A072AF82901300310C90DCA0DFF3E34
:10041800031D082A43084502031D142A4208440202
:10042800031C172A182A1F2A4208C4024308031C5F
:10043800C503C502491401300310C30CC20CFF3EAA
:10044800031D202A0130C702031D2B2A2C2A072A44
:1004580048080319302A312A362AC909CA09C90A9B
:100468000319CA0A4A08C3004908C20008008312CF
:1004780003138C1E402A412A4A2A1A08F8007808D1
:10048800AF000A128A1126200A128A118312031356
:100498000C1E4F2A502A552A0A128A118E230A1234
:1004A8008A110B1C582A592A8E2A0B1000308312E5
:1004B800031306180130AB002B08031D642A652AB4
:1004C800662AAA012A08031D6A2A6B2A762A2B03A0
:1004D800031D6F2A702A762A0130F8007808A007D1
:1004E800AA01AA0A003086180130A9002908031DAC
:1004F8007E2A7F2A802AA8012808031D842A852AA3
:100508008E2A2903031D892A8A2A8E2A0130A002ED
:10051800A801A80A7B088A007A088400790E83005B
:10052800FE0E7E0E09000A128A1158230A128A1139
:100538000A128A11F9230A128A110D308312031341
:100548002F060319A82AA92AB72A2B302F06031920
:10055800AE2AAF2AB72A2D302F060319B42AB52A96
:10056800B72AAE01AD013A302F02031CBC2ABD2ABE
:10057800C42A30302F020318C22AC32AC42AFC0115
:100588000A128A1152210A128A110A128A11D220D9
:100598000A128A1183120313230888002C08850085
:1005A800A12A0A128A110E2883120313BE00F02A08
:1005B8003030182B3130182B3230182B3330182BA1
:1005C8003430182B3530182B3630182B3730182B81
:1005D8003830182B3930182B3E08BC00BD013D08B7
:1005E800003A0319F82ADC2A3C08003A0319DC2AE5
:1005F800013A0319DE2A033A0319E02A013A0319DA
:10060800E22A073A0319E42A013A0319E62A033AC7
:100618000319E82A013A0319EA2A0F3A0319EC2ABE
:10062800013A0319EE2ADC2A0800F2002F2B0030C9
:10063800572B0130572B0230572B0330572B0430E0
:10064800572B0530572B0630572B0730572B0830C0
:10065800572B0930572B7208F000F1017108003A46
:100668000319372B1B2B7008303A03191B2B013A3F
:1006780003191D2B033A03191F2B013A0319212BC8
:10068800073A0319232B013A0319252B033A0319B7
:10069800272B013A0319292B0F3A03192B2B013A5F
:1006A80003192D2B1B2B08008316031788018901BA
:1006B8008801831603138501033086008030870084
:1006C8008801890183120313850186018701880146
:1006D80089010B110B108B170B178B128B158316B7
:1006E800031316149614831203130C13831603139F
:1006F8000F168F160F179F01EC308312031381001A
:100708008316031315149514573081000C138C1697
:100718000C1608000130F0007008FD077D03031D6A
:10072800962B972B9B2B83120313320899000230C8
:100738007D06031DA02BA12BA52B831203133108C3
:10074800990003307D06031DAA2BAB2BAF2B831218
:1007580003133008990004307D06031DB42BB52B14
:10076800BA2B0A30831203139900FD010800831283
:100778000313C001C1013C1CC22BC32BC92B3E086B
:10078800C0070318C10A3F08C10701300310BE0D96
:10079800BF0DFF3E031DCA2B01300310BD0CBC0C5E
:1007A800FF3E031DD12B3C083D04031DDC2BDD2B34
:1007B800BF2B4108BD004008BC000800831203138A
:1007C800BF00BE013F1CE92BEA2BEE2B3C08BD0005
:1007D8003D08BE070310BC0D0310BF0C3F08031DE6
:1007E800F62BF72BE62B3E08080083160313181286
:1007F80018151813831603178711831603139A0104
:100808003330990083120313981718131816831698
:10081800031398160800F300F201731C142C152C0E
:10082800192C7008F1007108F2070310F00D03107D
:10083800F30C7308031D212C222C112C72080800BC
:1008480064008001840A0406031900340406252C78
:02085800013469
:04400E00D420FF3F7C
:00000001FF
