:060000000A128A110C280F
:10000800FE00030EF2000A08F3000A128A118F2973
:100018000A128A110F280A128A1154230A128A1105
:10002800C30083132030840032300A128A114C2313
:100038000A128A11F601F701F801F90183010A127F
:100048008A11252A643083120313B6000030B700E2
:100058007608BF00C0013F08B8004008B9000A127E
:100068008A1126210A128A11831203133608C10045
:100078004108AB000A30B6000030B7002B08BF00BB
:10008800C0013F08B2004008B3009C30B400FF3004
:10009800B5000A128A11F8220A128A117608831208
:1000A80003133207B80033080318330AB9000A12D9
:1000B8008A1126210A128A11831203133608C100F5
:1000C8004108AA009C30BF003F08F4002B080A1220
:1000D8008A111F230A128A1183120313C000F630F3
:1000E800C1004108F4002A080A128A111F230A12C3
:1000F8008A118312031340077607C2004208A90039
:100108002B080A128A11E4210A128A118312031396
:10011800BF003F08A8002A080A128A11E4210A121F
:100128008A1183120313BF003F08A70029080A1287
:100138008A11E4210A128A1183120313BF003F08AF
:10014800A6000800643083120313B6000030B7001D
:100158007708BF00C0013F08B8004008B9000A127C
:100168008A1126210A128A11831203133608C10044
:100178004108B1000A30B6000030B7003108BF00AE
:10018800C0013F08B2004008B3009C30B400FF3003
:10019800B5000A128A11F8220A128A117708831206
:1001A80003133207B80033080318330AB9000A12D8
:1001B8008A1126210A128A11831203133608C100F4
:1001C8004108B0009C30BF003F08F40031080A1213
:1001D8008A111F230A128A1183120313C000F630F2
:1001E800C1004108F40030080A128A111F230A12BC
:1001F8008A118312031340077707C2004208AF0031
:1002080031080A128A11E4210A128A11831203138F
:10021800BF003F08AE0030080A128A11E4210A1212
:100228008A1183120313BF003F08AD002F080A127A
:100238008A11E4210A128A1183120313BF003F08AE
:10024800AC00080083120313BC01B71F2C292D2909
:100258003429B609B709B60A0319B70ABC01BC0A9A
:10026800B91F372938294129B809B909B80A031922
:10027800B90A0130BA003A08BC06BD01BE01360809
:1002880037040319482949298029BB01BB0A572982
:1002980001300310B60DB70DFF3E031D4D29013087
:1002A800BA003A08BB07B71F5A295B294C29013005
:1002B8000310BD0DBE0DFF3E031D5C293708390232
:1002C800031D682936083802031C6B296C29732919
:1002D8003608B8023708031CB903B9023D140130C7
:1002E8000310B70CB60CFF3E031D74290130BB0286
:1002F800031D7F2980295B293C0803198429852946
:100308008A29BD09BE09BD0A0319BE0A3E08B700FD
:100318003D08B6000800831203138C1E9429952902
:1003280099291A08F1007108F8000C1E9C299D29CA
:10033800A5290A128A11CB220A128A1183160313DD
:100348000C120B1CA829A929DD290B1000308312D7
:1003580006180130A3002308031DB329B429B529C1
:10036800A2012208031DB929BA29C5292303031D9F
:10037800BE29BF29C5290130F1007108F607A2017D
:10038800A20A003086180130A1002108031DCD29DA
:10039800CE29CF29A0012008031DD329D429DD297E
:1003A8002103031DD829D929DD290130F602A0012E
:1003B800A00A73088A00720E8300FE0E7E0E0900E2
:1003C80083120313B200FC293030242A3130242A46
:1003D8003230242A3330242A3430242A3530242A4F
:1003E8003630242A3730242A3830242A3930242A2F
:1003F8003208F400F5017508003A0319042AE829BF
:100408007408003A0319E829013A0319EA29033A5A
:100418000319EC29013A0319EE29073A0319F029BF
:10042800013A0319F229033A0319F429013A031985
:10043800F6290F3A0319F829013A0319FA29E82984
:1004480008000A128A1195220A128A110A128A11C0
:1004580036230A128A110D3078060319342A352AF0
:10046800452A2B30780603193A2A3B2A452A2D308B
:1004780078060319402A412A452A83120313A50145
:10048800A4010A128A115E220A128A110A128A111A
:10049800A6200A128A110A128A1126200A128A1123
:1004A8007608831203138800770885002F2A0A121A
:1004B8008A110C282B307806031D632A642A682ABF
:1004C80083120313A501A50A0D307806031D6D2AB2
:1004D8006E2A7A2A831203132503031D742A752AA8
:1004E8007A2AA5010130F4007408F7072D30780640
:1004F800031D7F2A802A842A83120313A401A40AD5
:100508000D307806031D892A8A2A942A8312031338
:100518002403031D902A912A942AA4010130F7028A
:1005280008008316031788018901880183160313BD
:100538008501033086008030870088018901831295
:100548000313850186018701880189010B110B10AE
:100558008B170B178B128B1583160313161496140F
:10056800831203130C13831603130F168F160F171A
:100578009F01EC30831203138100831603131514B3
:100588009514573081000C138C160C160800013096
:10059800F0007008F9077903031DD32AD42AD82A52
:1005A800831203132808990002307906031DDD2AF7
:1005B800DE2AE22A831203132708990003307906FA
:1005C800031DE72AE82AEC2A831203132608990058
:1005D80004307906031DF12AF22AF72A0D30831216
:1005E80003139900F9010800F401F50183120313BC
:1005F800321CFF2A002B062B3408F4070318F50ACF
:100608003508F50701300310B40DB50DFF3E031D85
:10061800072B01300310B30CB20CFF3E031D0E2B49
:1006280032083304031D192B1A2BFA2A7508B30054
:100638007408B200080083120313B300B201331C1C
:10064800262B272B2B2B7408F5007508B2070310EF
:10065800F40D0310B30C3308031D332B342B232B59
:100668003208080083160313181218151813831676
:1006780003178711831603139A01333099008312E5
:1006880003139817181318168316031398160800DF
:1006980064008001840A04060319003404064D2B03
:0206A80001341B
:04400E00D420FF3F7C
:00000001FF
