:060000000A128A110C280F
:10000800FE00030EF2000A08F3000A128A112E2AD3
:100018000A128A110F280A128A11B6230A128A11A3
:10002800CA0083132030840039300A128A11AE23A3
:100038000A128A11F601F701F801F90183010A127F
:100048008A11F82A30307802031C2B282C288C2897
:100058003A3078020318312832288C288312031387
:100068002103031D382839288C280130BB003B08A0
:10007800F607A1017603031D42284328482878087B
:10008800D03EBB003B08A60002307606031D4D2873
:100098004E2863287808D03EBB003B08A5000A30EC
:1000A800BB003B08F40026080A128A1181230A12B1
:1000B8008A11831203132507BC003C08A3000330F0
:1000C8007606031D682869288C287808D03EBB006E
:1000D8003B08A4000A30BB003B08F40025080A12BC
:1000E8008A1181230A128A1183120313BC00643017
:1000F800BD003D08F40026080A128A1181230A125D
:100108008A11831203133C072407BE003E08A2008D
:100118000D307806031D912892289E287603031D2A
:10012800962897289E28F601831203132608BB00F9
:100138003B08F7000D307806031DA328A428B12832
:1001480002307606031DA928AA28B128F6018312D1
:1001580003132308BB003B08F7000D307806031D86
:10016800B628B728C42803307606031DBC28BD2846
:10017800C428F601831203132208BB003B08F700CA
:100188000800643083120313BD000030BE0020084D
:10019800C600C7014608BF004708C0000A128A11F6
:1001A800C5210A128A11831203133D08C8004808A2
:1001B800B2000A30BD000030BE003208C600C701D8
:1001C8004608B9004708BA009C30BB00FF30BC00A5
:1001D8000A128A115A230A128A1183120313200859
:1001E8003907BF003A0803183A0AC0000A128A11F0
:1001F800C5210A128A11831203133D08C800480852
:10020800B1009C30C6004608F40032080A128A1170
:1002180081230A128A1183120313C700F630C8001B
:100228004808F40031080A128A1181230A128A1137
:100238008312031347072007C9004908B000320892
:100248000A128A1181220A128A1183120313C60024
:100258004608AF0031080A128A1181220A128A114F
:1002680083120313C6004608AE0030080A128A112A
:1002780081220A128A1183120313C6004608AD00B0
:100288000800643083120313BD000030BE007708F5
:10029800C600C7014608BF004708C0000A128A11F5
:1002A800C5210A128A11831203133D08C8004808A1
:1002B800B8000A30BD000030BE003808C600C701CB
:1002C8004608B9004708BA009C30BB00FF30BC00A4
:1002D8000A128A115A230A128A1177088312031301
:1002E8003907BF003A0803183A0AC0000A128A11EF
:1002F800C5210A128A11831203133D08C800480851
:10030800B7009C30C6004608F40038080A128A1163
:1003180081230A128A1183120313C700F630C8001A
:100328004808F40037080A128A1181230A128A1130
:100338008312031347077707C9004908B60038082E
:100348000A128A1181220A128A1183120313C60023
:100358004608B50037080A128A1181220A128A1142
:1003680083120313C6004608B40036080A128A111D
:1003780081220A128A1183120313C6004608B300A9
:10038800080083120313C301BE1FCB29CC29D3292C
:10039800BD09BE09BD0A0319BE0AC301C30AC01FAD
:1003A800D629D729E029BF09C009BF0A0319C00AFD
:1003B8000130C1004108C306C401C5013D083E041F
:1003C8000319E729E8291F2AC201C20AF6290130C0
:1003D8000310BD0DBE0DFF3E031DEC290130C10009
:1003E8004108C207BE1FF929FA29EB290130031079
:1003F800C40DC50DFF3E031DFB293E084002031D29
:10040800072A3D083F02031C0A2A0B2A122A3D0824
:10041800BF023E08031CC003C0024414013003108D
:10042800BE0CBD0CFF3E031D132A0130C202031D82
:100438001E2A1F2AFA2943080319232A242A292AAB
:10044800C409C509C40A0319C50A4508BE004408F9
:10045800BD000800831203138C1E332A342A382A5D
:100468001A08F1007108F8000C1E3B2A3C2A412AA0
:100478000A128A112D230A128A110B1C442A452AB2
:100488007A2A0B1000308312031306180130AA00D1
:100498002A08031D502A512A522AA9012908031D96
:1004A800562A572A622A2A03031D5B2A5C2A622AD3
:1004B8000130F1007108A007A901A90A00308618C7
:1004C8000130A8002808031D6A2A6B2A6C2AA70194
:1004D8002708031D702A712A7A2A2803031D752A02
:1004E800762A7A2A0130A002A701A70A73088A008F
:1004F800720E8300FE0E7E0E090083120313B900EC
:10050800992A3030C12A3130C12A3230C12A3330D9
:10051800C12A3430C12A3530C12A3630C12A373091
:10052800C12A3830C12A3930C12A3908F400F50106
:100538007508003A0319A12A852A7408003A031994
:10054800852A013A0319872A033A0319892A013AA5
:1005580003198B2A073A03198D2A013A03198F2A9E
:10056800033A0319912A013A0319932A0F3A0319F6
:10057800952A013A0319972A852A08008316031732
:1005880088018901880183160313850103308600D9
:100598008030870088018901831203138501860151
:1005A8008701880189010B110B108B170B178B1210
:1005B8008B158316031316149614831203130C1346
:1005C800831603130F168F160F179F01EC30831233
:1005D80003138100831603131514951457308100F3
:1005E8000C138C160C1608000A128A11C2220A1261
:1005F8008A110A128A1198230A128A113A3078024B
:10060800031C072B082B102B3030780203180D2BF6
:100618000E2B102BF601142B83120313A101A10A30
:100628000A128A1126200A128A110A128A114521F1
:100638000A128A110A128A11C5200A128A11831213
:1006480003132008880077088500022B0A128A11F4
:100658000C280130F0007008F9077903031D352BC9
:10066800362B3A2B831203132F0899000230790690
:10067800031D3F2B402B442B831203132E08990094
:1006880003307906031D492B4A2B4E2B8312031383
:100698002D08990004307906031D532B542B592B30
:1006A8000D30831203139900F9010800F401F501D4
:1006B80083120313391C612B622B682B3B08F40748
:1006C8000318F50A3C08F50701300310BB0DBC0DF3
:1006D800FF3E031D692B01300310BA0CB90CFF3E15
:1006E800031D702B39083A04031D7B2B7C2B5C2BD4
:1006F8007508BA007408B900080083120313BA0019
:10070800B9013A1C882B892B8D2B7408F5007508C4
:10071800B9070310F40D0310BA0C3A08031D952B02
:10072800962B852B39080800831603131812181501
:100738001813831603178711831603139A0133308E
:1007480099008312031398171813181683160313A6
:100758009816080064008001840A0406031900340E
:060768000406AF2B013472
:04400E00D420FF3F7C
:00000001FF
